:100000000C9434000C9451000C9451000C94510049
:100010000C9451000C9451000C9451000C9451001C
:100020000C9451000C9451000C9451000C9451000C
:100030000C9451000C9451000C9451000C945100FC
:100040000C9451000C9468010C9465020C945100BE
:100050000C9451000C9451000C9451000C945100DC
:100060000C9451000C94510011241FBECFEFD8E026
:10007000DEBFCDBF12E0A0E0B1E0EAEDFAE102C0E0
:1000800005900D92A03DB107D9F723E0A0EDB2E0B5
:1000900001C01D92A138B207E1F70E9469040C94D7
:1000A0006B0D0C940000249A8CB5806C8CBD089567
:1000B0000F931F93CF93DF93CDB7DEB7A8970FB6FB
:1000C000F894DEBF0FBECDBF8AEA8D8B02E010E050
:1000D0009E012F5F3F4F41E050E0BE016B5E7F4FBE
:1000E00080E90E944703298130E0220F331F8A8173
:1000F000882311F02F5F3F4F49E0429FC001439F8B
:10010000900D11246AE070E00E944E0ACB018096A7
:10011000A8960FB6F894DEBF0FBECDBFDF91CF918A
:100120001F910F910895EF92FF920F931F93CF931A
:10013000DF93CDB7DEB7A0970FB6F894DEBF0FBE42
:10014000CDBF0E9458008C01CE0101967C0181E058
:10015000043611052CF50E94BF0282E00E94BF0206
:100160001F930F9388E192E09F938F93FF92EF92FA
:100170000E94930AC7010E9421030F900F900F90D5
:100180000F900F900F90A0960FB6F894DEBF0FBEA1
:10019000CDBFDF91CF911F910F91FF90EF90089508
:1001A0000E94BF0282E00E94BF021F930F9389E268
:1001B00092E0DACF81E00E94BF0282E00E94BF029B
:1001C00085E492E00E9421032FEF8FEF9CE2215003
:1001D00080409040E1F700C000000895519A0895D2
:1001E000EF92FF920F931F93CF93DF937C018B01CC
:1001F000EA01BC01CA010E947D0AF70101900020BA
:10020000E9F73197EE19FF09EC0FFD1F8CE28083AF
:100210001182B801CE01DF91CF911F910F91FF9014
:10022000EF900C94690A90ED980F9A3038F091E0B5
:100230008D3209F090E0892F8170089581E0FCCF24
:100240006F927F928F929F92AF92BF92CF92DF92E6
:10025000EF92FF920F931F93CF93DF93EC018B01EB
:100260005A01FC0101900020E9F74C013F01681A96
:10027000790AF12CE12C6701FFEFCF1ADF0AC614CF
:10028000D704E9F4A701BE01C8010E94840A0E0D3B
:100290001F1DF8011082BE016C0D7D1DC501DF918F
:1002A000CF911F910F91FF90EF90DF90CF90BF9073
:1002B000AF909F908F907F906F900C947D0AF40187
:1002C00081914F010E9413018823E1F27601D3CF7F
:1002D0001F920F920FB60F9211242F933F934F93BB
:1002E0005F936F937F938F939F93AF93BF93EF939E
:1002F000FF932EB58091D4029091D50221119CC01C
:1003000018161906BCF4E091D402F091D502E6511A
:10031000FD4F108281E090E09093D3028093D2024F
:100320006AEE72E08AE693E00E947D0A1092D5029E
:100330001092D4028091E0029091E102892B09F49D
:100340008EC048E150E069E373E08DE193E00E94E4
:10035000840A109235031092DF021092DE0210928E
:10036000E1021092E0028091D8029091D902892B8B
:10037000D9F18091D6029091D702892BA9F56AE52F
:1003800072E08DE193E00E947D0A8DE193E0FC0133
:1003900001900020E9F7CF01209101033091020381
:1003A0003F932F932BE632E03F932F9301979F9338
:1003B0008F930E94930A109231038091D6029091FC
:1003C000D70201969093D7028093D6021092DF0253
:1003D0001092DE021092E3021092E2020F900F9050
:1003E0000F900F900F900F908091DE029091DF029E
:1003F00049970CF058C08091DE029091DF029C0179
:100400002F5F3F4F3093DF022093DE02835E9C4FCD
:10041000FC0180818EBDFF91EF91BF91AF919F91C3
:100420008F917F916F915F914F913F912F910F909D
:100430000FBE0F901F90189547970CF07BCF8091BF
:10044000D4029091D502AC014F5F5F4F5093D5021B
:100450004093D40286519D4FFC0120836BCF809145
:10046000E4029091E502892B09F47DCF8091D002BE
:100470009091D102019709F076CF81E280931D031C
:1004800048E150E063E073E08EE193E00E94840A6B
:1004900010922A031092E5021092E4021092DF02F9
:1004A0001092DE0260CF1EBC4AE150E061E070E0D5
:1004B0008DE193E00E94620A1092DF021092DE0248
:1004C0001092D7021092D602A6CF1F920F920FB6AB
:1004D0000F9211242F934F935F938F939F93EF93DA
:1004E000FF932091C6008091E8029091E9022D309F
:1004F00041F518161906CCF4E091E802F091E902F2
:10050000ED5FFC4F108281E090E09093E5028093D4
:10051000E4029093E7028093E6029093E3028093D3
:10052000E2021092E9021092E802FF91EF919F918E
:100530008F915F914F912F910F900FBE0F901F9051
:100540001895499794F78091E8029091E902AC01DF
:100550004F5F5F4F5093E9024093E8028D5F9C4FDD
:10056000FC012083E2CF9BB19F709BB99BB1807F40
:10057000892B8BB9409A409A409A40980895CF931E
:10058000C82F28980E94B3028C2F8295807F0E94EA
:10059000B30286E69EE00197F1F70000CF9108953F
:1005A000982F862F911103C080580C94BF0292306F
:1005B00011F48C56FACF913011F48054F6CF8C524E
:1005C000933099F380E0F1CF8AB1806F8AB9209A95
:1005D000389A8FEF9BE60197F1F700C0000080E3A7
:1005E0000E94B3028FEF93E20197F1F700C0000081
:1005F00080E30E94B3028DED90E00197F1F780E374
:100600000E94B30280E20E94B30286E69EE0019758
:10061000F1F7000088E20E94BF028FE00C94BF0255
:10062000CF93C82F289A0E94B3028C2F8295807F87
:100630000E94B30286E69EE00197F1F70000CF9199
:100640000895CF93DF93EC018991811103C0DF916D
:10065000CF9108950E941003F7CF8091C00087FFCB
:10066000FCCF8091C60008959093C5008093C4008C
:10067000E1ECF0E080818069808386E08093C200B5
:10068000789408958091C000807890E008950F9349
:100690001F93A82F4115510509F468C084EA80937F
:1006A000BC008091BC0087FFFCCF8091B900887F9F
:1006B000883031F58A2F8E7F8093BB0084E8809349
:1006C000BC008091BC0087FFFCCF8091B900887F7F
:1006D0008831C9F08032A1F494E99093BC0010C035
:1006E00081918093BB006093BC008091BC0087FF28
:1006F000FCCF8091B900887F883249F0803361F364
:100700001F910F910895FB01460F571F64E84E1784
:100710005F0731F740E10115110569F514C0F901D2
:1007200094EC0130110589F484E88093BC00809139
:10073000BC0087FFFCCF8091B900887F883501F726
:100740008091BB00808380E0C7CF9093BC008091F4
:10075000BC0087FFFCCF8091B900887F0150110950
:10076000803571F68091BB008193DBCF80E001156D
:10077000110531F248E084EA8093BC008091BC000E
:1007800087FFFCCF8091B900887F4813B9CFA16063
:10079000A093BB0084E88093BC008091BC0087FFDD
:1007A000FCCF8091B900887F803409F4B8CF8834B9
:1007B00009F0A6CF91CF1092B9008093B8000895A8
:1007C00090E09093C5008093C400E1ECF0E080815C
:1007D0008860808386E08093C200089587B1817F1E
:1007E00087B988B18E6088B92198299A8AB18C60BE
:1007F0008AB98BB18C608BB9279A2F9A0895CF93C1
:10080000DF93CDB7DEB72C970FB6F894DEBF0FBEDF
:10081000CDBF8CE0ECE0F2E0DE01119601900D928C
:100820008A95E1F790E080E02BB12C602BB92F9AEC
:10083000009781F55A9830E020E0EFEFF3E231972E
:10084000F1F700C000002330310559F146B150E006
:10085000B9016F5F7F4F02C0559547956A95E2F7E2
:1008600040FD26C0A901440F551F240F351F41E04C
:1008700050E04C0F5D1F240F351F820F931FFC01AA
:1008800080812C960FB6F894DEBF0FBECDBFDF91EE
:10089000CF9108958130910511F45B98CCCF2F98BA
:1008A000CACF199905C08C0F9D1FFC018285E9CF25
:1008B0002F5F3F4F2430310509F0BFCF2BB12C60A3
:1008C0002BB92F9A01968330910509F0ADCF80E0C6
:1008D000D8CFCF93DF93CDB7DEB7AE970FB6F894EE
:1008E000DEBF0FBECDBF0E94E40281E00E94BF02C6
:1008F0008DE10E94DB038FE290E00E9434030E94AE
:10090000EE030E94530078948CEA898310E000E0A3
:1009100030E020E042E050E0BE016F5F7F4F80E9B1
:100920000E94470381E5898330E020E041E050E008
:10093000BE016F5F7F4F80E90E9447030E94DA008B
:100940000E94EE00D12CC12C912C812C6624639442
:10095000712C73E0272E312CE2E04E2E512C5E01DB
:100960002DE2A20EB11C0E945800909302038093C6
:1009700001038091010390910203813591050CF4EC
:1009800015C3599A80910103909102038135910515
:100990000CF40EC37092D9026092D8028091D202F8
:1009A0009091D302892BE9F01092D3021092D202D7
:1009B00080916A03813209F051C36BEC71E08BE6E0
:1009C00093E00E94740A892B09F0FCC28091C9014E
:1009D0009091CA01019797FDF0C29093CA0180934C
:1009E000C9018091D0029091D102892B09F057C0A2
:1009F000012B51F481E00E94BF0282E00E94BF02FD
:100A00008EE692E00E9421038091E6029091E70237
:100A1000892B09F16BEC71E083E093E00E94740A8A
:100A2000892B09F084C38091C9019091CA01019674
:100A30009093CA018093C901CC24C394D12C60E067
:100A400081E00E94D00283E093E00E942103109293
:100A5000E7021092E6028091E2029091E30201E047
:100A600010E0019789F48FEF9FE724E081509040D8
:100A70002040E1F700C0000084E090E09093D102B4
:100A80008093D00210E000E00E94FF03823309F05F
:100A90008EC37092D1026092D00210E000E080918B
:100AA000D0029091D102019709F03FC0012B51F47F
:100AB00081E00E94BF0282E00E94BF0288E792E0CC
:100AC0000E9421038091E6029091E702892BF1F0C8
:100AD0006BEC71E083E093E00E94740A892B09F0CB
:100AE00083C38091C9019091CA0101979093CA0173
:100AF0008093C90160E081E00E94D00283E093E02E
:100B00000E9421031092E7021092E6020E94FF0366
:100B1000813309F0A0C31092D1021092D00210923A
:100B2000E3021092E20210E000E08091D002909186
:100B3000D1020297D1F4012B09F0ACC381E00E94ED
:100B4000BF0282E00E94BF020E9493000E94FF0346
:100B5000813309F0B2C31092D1021092D0021092E8
:100B6000E3021092E20210E000E08091D002909146
:100B7000D102039709F0D3C0012B31F481E00E9428
:100B8000BF0282E00E94BF0294E1891691040CF436
:100B9000BDC38091C9019091CA0110E000E0181610
:100BA00019062CF560E080E00E94D0028091CA0115
:100BB0008F938091C9018F938BE692E09F938F93DF
:100BC000BF92AF920E94930AC5010E94210386E959
:100BD00092E00E94210389ED91E00E9421030F9091
:100BE0000F900F900F900F900F9001E010E0809108
:100BF000860190918701181619062CF560E0802F68
:100C00000E94D002809187018F93809186018F93FB
:100C10008BE692E09F938F93BF92AF920E94930ACC
:100C2000C5010E94210386E992E00E94210386E922
:100C300091E00E9421030F5F1F4F0F900F900F90C4
:100C40000F900F900F9080914301909144011816DE
:100C500019062CF560E0802F0E94D002809144019B
:100C60008F93809143018F938BE692E09F938F93B4
:100C7000BF92AF920E94930AC5010E94210386E9A8
:100C800092E00E94210383E591E00E9421030F5F1F
:100C90001F4F0F900F900F900F900F900F9080911B
:100CA000000190910101181619062CF560E0802FC3
:100CB0000E94D002809101018F93809100018F9357
:100CC0008BE692E09F938F93BF92AF920E94930A1C
:100CD000C5010E94210386E992E00E94210380E180
:100CE00091E00E9421030F5F1F4F0F900F900F9014
:100CF0000F900F900F90043009F0FEC2912C812CC0
:100D00000E94FF03813309F005C31092D1021092B3
:100D1000D0021092E3021092E20210E000E0809113
:100D2000D0029091D102049709F06BC0012B21F5FC
:100D30001092E3021092E20281E00E94BF0282E080
:100D40000E94BF0288E992E00E94210360E081E0F6
:100D50000E94D0028FE992E00E94210360E082E0CD
:100D60000E94D00287EA92E00E94210366E080E0C0
:100D70000E94D002F12CE12C9AE0E916F1040CF467
:100D8000E8C20E94FF0301E010E08A32D1F5109220
:100D9000D1021092D0021092E3021092E20249E3D3
:100DA00053E06DEE71E021E0C216D104C1F049E3D9
:100DB00053E06AEA71E082E0C816D10481F049E3A9
:100DC00053E067E671E093E0C916D10441F024E0F6
:100DD000C216D10451F449E353E064E271E083E0C8
:100DE00093E00E94F000D12CC12C7092E10260923D
:100DF000E0021092E5021092E402F12CE12C10E0E6
:100E000000E08091D0029091D102059709F06BC06B
:100E10000115110509F058C081E00E94BF0282E06F
:100E20000E94BF028091C9019091CA01181619064B
:100E300074F460E080E00E94D0028DEA92E00E94AB
:100E400021038DEE91E00E94210301E010E08091EA
:100E50008601909187011816190674F460E0802FBE
:100E60000E94D00286EB92E00E9421038AEA91E080
:100E70000E9421030F5F1F4F809143019091440115
:100E80001816190674F460E0802F0E94D0028CEBD3
:100E900092E00E94210387E691E00E9421030F5F08
:100EA0001F4F80910001909101011816190664F4FA
:100EB00060E0802F0E94D00285EC92E00E94210326
:100EC00084E291E00E9421030E94FF03813309F034
:100ED000A3C21092D1021092D0021092E30210929B
:100EE000E20210E000E08091D0029091D1020697DA
:100EF00009F039CD0115110509F048C081E00E94C3
:100F0000BF0282E00E94BF028091C9019091CA0194
:100F10001816190654F460E080E00E94D00288EFB1
:100F200091E00E94210301E010E080918601909100
:100F300087011816190654F460E0802F0E94D00231
:100F400085EB91E00E9421030F5F1F4F80914301C9
:100F5000909144011816190654F460E0802F0E9405
:100F6000D00282E791E00E9421030F5F1F4F809122
:100F70000001909101011816190644F460E0802FD9
:100F80000E94D0028FE291E00E9421030E94FF03A1
:100F9000813309F062C21092D1021092D0021092F5
:100FA000E3021092E20210E000E0DDCC5998EACCB6
:100FB0001092D9021092D802F1CC1092CA0110926C
:100FC000C9010FCD68E871E08BE693E00E94740AD6
:100FD000892B89F48091860190918701019797FD73
:100FE00005C09093870180938601FBCC1092870106
:100FF00010928601F6CC65E471E08BE693E00E94E6
:10100000740A892B89F480914301909144010197DE
:1010100097FD05C09093440180934301E2CC109268
:10102000440110924301DDCC62E071E08BE693E075
:101030000E94740A892B09F0D4CC80910001909110
:101040000101019797FD05C0909301018093000174
:10105000C8CC1092010110920001C3CCAE014E5DCC
:101060005F4FBE016B5E7F4F8AE693E00E942001D6
:101070006BEC71E0CE0145960E94740A892B89F4CD
:101080008091C9019091CA0101969093CA01809301
:10109000C901BE016E5D7F4F8DEE91E00E947D0A19
:1010A000A0CC68E871E0CE0145960E94740A892BB5
:1010B00079F4809186019091870101969093870140
:1010C00080938601BE016E5D7F4F8AEA91E0E6CF94
:1010D00065E471E0CE0145960E94740A892B79F48B
:1010E0008091430190914401019690934401809333
:1010F0004301BE016E5D7F4F87E691E0CFCF62E096
:1011000071E0CE0145960E94740A892B09F069CCE2
:1011100080910001909101010196909301018093CB
:101120000001BE016E5D7F4F84E291E0B7CF68E8B9
:1011300071E083E093E00E94740A892B69F4809146
:101140008601909187010196909387018093860193
:1011500042E0C42ED12C73CC65E471E083E093E0CF
:101160000E94740A892B69F4809143019091440193
:101170000196909344018093430133E0C32ED12C18
:101180005ECC62E071E083E093E00E94740A892BF8
:1011900009F055CC80910001909101010196909346
:1011A00001018093000124E0C22ED12C48CC83336E
:1011B00029F45092D1024092D0026FCC843329F4AA
:1011C0003092D1022092D00268CC853339F485E088
:1011D00090E09093D1028093D0025FCC863309F0E7
:1011E0005ECC86E090E0F5CF68E871E083E093E0C4
:1011F0000E94740A892B51F4809186019091870195
:101200000197909387018093860174CC65E471E027
:1012100083E093E00E94740A892B51F4809143018A
:10122000909144010197909344018093430162CCD3
:1012300062E071E083E093E00E94740A892B09F078
:1012400059CC809100019091010101979093010187
:10125000809300014FCC833329F45092D102409205
:10126000D00261CC843329F43092D1022092D00292
:101270005ACC853339F485E090E09093D102809385
:10128000D00251CC01E010E0863309F04ECC86E06C
:1012900090E0F3CF94E1891691045CF081E00E9424
:1012A000BF0282E00E94BF020E949300912C812C19
:1012B0004DCC2FEF821A920A49CC823329F47092D6
:1012C000D1026092D0024FCC843329F43092D10203
:1012D0002092D00248CC853339F485E090E0909399
:1012E000D1028093D0023FCC01E010E0863309F0B8
:1012F0003CCC86E090E0F3CF60E0802F0E94D002EB
:1013000083E892E00E9421030F5FF5CC8FEF881AEB
:10131000980AF6CC823329F47092D1026092D002FE
:10132000FCCC833329F45092D1024092D002F5CC08
:10133000853339F485E090E09093D1028093D00218
:10134000ECCC01E010E0863309F0E9CC86E090E0D7
:10135000F3CF0E94FF03182F9FEF2FE784E09150F7
:1013600020408040E1F700C0000080ED810F8A300E
:1013700008F002CD94E0E916F104D9F567E081E0C8
:101380000E94D002812F0E94100395E0E92EF12CDB
:101390006BEC71E083E093E00E94740AF701E7537D
:1013A000FE4F892B09F168E871E083E093E00E9429
:1013B000740AF701EA57FE4F892BB1F065E471E03A
:1013C00083E093E00E94740AF701ED5BFE4F892BE6
:1013D00059F062E071E083E093E00E94740A892B87
:1013E00021F4F701E050FF4F14A38FEFE81AF80A39
:1013F000C3CC27E0E216F10459F466E082E00E94D3
:10140000D002812F0E94100388E0E82EF12CC0CF7B
:10141000812F0E941003BCCF823329F47092D10235
:101420006092D0025ECD833329F45092D102409273
:10143000D00257CD843329F43092D1022092D002C9
:1014400050CD01E010E0863309F04DCD86E090E00C
:101450009093D1028093D00244CD823329F47092CC
:10146000D1026092D0029FCD833329F45092D102F1
:101470004092D00298CD843329F43092D102209248
:10148000D00291CD01E010E0853309F06CCA85E00F
:1014900090E09093D1028093D00285CDAA1BBB1B14
:1014A00051E107C0AA1FBB1FA617B70710F0A61B64
:1014B000B70B881F991F5A95A9F780959095BC0185
:1014C000CD010895DC0101C06D9341505040E0F71B
:1014D0000895FB01DC010D900020E9F711970190C0
:1014E0000D920020E1F70895FB01DC018D91019040
:1014F00080190110D9F3990B0895FB01DC010190CB
:101500000D920020E1F70895FB01DC0141505040AD
:1015100048F001900D920020C9F701C01D92415082
:101520005040E0F70895AEE0B0E0E9E9FAE00C944D
:10153000420D0D891E8986E08C831A8309838FEF03
:101540009FE79E838D83AE01475E5F4F6F89788DE5
:10155000CE0101960E94B60A2F813885020F131F13
:10156000F80110822E96E4E00C945E0DABE0B0E042
:10157000ECEBFAE00C94340D7C013B018A01FC0198
:1015800017821682838181FFC8C1CE0101965C015A
:10159000F7019381F30193FD859193FF81913F01C1
:1015A000882309F453C1853239F493FD859193FF63
:1015B00081913F01853229F4B70190E00E94A60C89
:1015C000E7CF912C212C312CFFE1F31538F08B3231
:1015D00011F190F4803209F1833229F137FC3CC0DB
:1015E00020ED280F2A3050F536FE20C08AE0989E64
:1015F000200D1124922E06C08D3291F0803371F7A8
:10160000689430F8F30193FD859193FF81913F0138
:101610008111DACF21C0689431F8689432F8F2CFA2
:10162000689433F8EFCF689434F8ECCFEAE02E9E5C
:10163000200D1124222E689435F8E4CF8E3229F43F
:1016400036FC04C1689436F8DDCF8C3619F4689402
:1016500037F8D8CF8836B1F2982F9F7D95549330C4
:10166000E0F08336A1F18337C1F1833509F063C01F
:101670002801F2E04F0E511CF801C080D180692D85
:1016800070E036FC02C06FEF7FEFC6010E94900C45
:101690004C01689437F882010AC00C5F1F4FFFE3CA
:1016A000F98388248394912C6501E89437F833FEFC
:1016B0002DC0522C8114910471F5552009F468CF86
:1016C000B70180E290E00E94A60C5A94F6CFF80190
:1016D000808189830E5F1F4FE4CF2801F2E04F0E17
:1016E000511CF801C080D180692D70E036FC02C029
:1016F0006FEF7FEFC6010E949B0C4C018201D5CF9A
:10170000B70180E290E00E94A60C2A9428141904E4
:1017100009F0B0F7CECFF60137FC859137FE819105
:101720006F01B70190E00E94A60C51105A94F1E0AD
:101730008F1A9108BFCF843619F0893609F077C027
:10174000F80137FE6BC060817181828193810C5FEB
:101750001F4FF32DFF763F2E97FF09C09095809580
:10176000709561957F4F8F4F9F4F689437F82AE0AF
:1017700030E0A5010E94D60CC82ECA188C2C432C30
:1017800036FE0CC0E89440F8C91440F434FE05C09D
:1017900032FC03C0F32DFE7E4F2E892C44FE95C0F3
:1017A000FE01EC0DF11D8081803309F087C0242DEE
:1017B000297E422E842D8870582E43FC95C040FE11
:1017C0008FC09C2C821418F42C0C922C981844FE78
:1017D00091C0B70180E390E00E94A60C42FE09C0D0
:1017E00088E790E041FE02C088E590E0B7010E94E2
:1017F000A60CC91408F48AC0CA94D12C9FEFC91A48
:10180000D90ACA0CDB1CF60182916F01B70190E086
:101810000E94A60CAC14BD04B1F74FCF608171815A
:10182000072E000C880B990B0E5F1F4F92CFD32C05
:10183000E894D4F82AE030E0853739F1232D297F68
:10184000D22E8F3601F148F48835A9F0F701868150
:1018500097812B96E2E10C94500D803749F0883740
:10186000A9F7D4FE02C06894D2F820E130E00DC0A0
:101870006894D4F8F6CF34FE03C0822F8660D82E49
:1018800020E132E002C028E030E0F801D7FE0FC0CE
:1018900060817181828193810C5F1F4FA5010E943D
:1018A000D60CC82ECA183D2CE89437F867CF608153
:1018B000718190E080E00E5F1F4FF0CF42FC02C0CC
:1018C000839478CF8394839475CF842D867809F49C
:1018D00071CFF6CFB70180E290E00E94A60C83940E
:1018E0008214C0F3512C73CF522C5818821408F470
:1018F0006ECFF8CF842D867809F47BCF8BE241FE42
:1019000080E247FC8DE2B70190E071CFB70180E340
:1019100090E00E94A60C9A946CCF8FEF9FEF99CF26
:10192000FC010590615070400110D8F780959095AA
:101930008E0F9F1F0895FC016150704001900110AF
:10194000D8F7809590958E0F9F1F08950F931F9342
:10195000CF93DF93182F092FEB018B8181FD09C0F5
:101960001FEF0FEF812F902FDF91CF911F910F91DC
:10197000089582FF14C02E813F818C819D8128179C
:1019800039073CF4E881F981CF0101969983888376
:1019900010838E819F8101969F838E83E3CFE8859C
:1019A000F985812F0995892BA1F3DACFFA01AA27AE
:1019B000283051F1203181F1E8946F936E7F6E5F92
:1019C0007F4F8F4F9F4FAF4FB1E03ED0B4E03CD040
:1019D000670F781F891F9A1FA11D680F791F8A1F23
:1019E000911DA11D6A0F711D811D911DA11D20D08A
:1019F00009F468943F912AE0269F11243019305D44
:101A00003193DEF6CF010895462F4770405D419334
:101A1000B3E00FD0C9F7F6CF462F4F70405D4A3381
:101A200018F0495D31FD4052419302D0A9F7EACF49
:101A3000B4E0A6959795879577956795BA95C9F778
:101A400000976105710508959B01AC010A2E06946B
:101A50005795479537952795BA95C9F7620F731F24
:101A6000841F951FA01D08952F923F924F925F9261
:101A70006F927F928F929F92AF92BF92CF92DF929E
:101A8000EF92FF920F931F93CF93DF93CDB7DEB703
:101A9000CA1BDB0B0FB6F894DEBF0FBECDBF099497
:101AA0002A88398848885F846E847D848C849B84EE
:101AB000AA84B984C884DF80EE80FD800C811B81FC
:101AC000AA81B981CE0FD11D0FB6F894DEBF0FBE2B
:0A1AD000CDBFED010895F894FFCF9B
:101ADA00000037383838323131323231323400008E
:101AEA005368616E2042697279616E690000000074
:101AFA0000000000787878782D78782D7878004280
:101B0A00697279616E693A20667269646765000074
:101B1A000000000000383130303139323633323388
:101B2A00310000426C61636B205269666C65204328
:101B3A006F666665650000787878782D78782D78F4
:101B4A007800436F666665653A2066726967650064
:101B5A0000000000000000003631333030383731E1
:101B6A003532363700004172697A6F6E61205465EA
:101B7A0061000000000000000000787878782D7875
:101B8A00782D7878005465613A20667269646765D1
:101B9A000000000000000000000000363431353437
:101BAA0038313231373132000041736961676F2051
:101BBA0043686976650000000000000000787878C4
:101BCA00782D78782D7878004275747465723A2089
:101BDA00667265657A65720000000000313233343E
:101BEA0035363738392A302354656D706572617419
:101BFA007572653A202564460054656D7065726198
:101C0A00747572653A202564462C20746F6F2068BB
:101C1A00696768210057656C636F6D6520746F2072
:101C2A004672696467654875620020202054656DB4
:101C3A0070657261747572653A2000256400537488
:101C4A006F72696E673A200052656D6F76696E67CA
:101C5A003A20002020202020202020202020202080
:101C6A002020202020202000596561723A20004D52
:101C7A006F6E74683A20004461793A2000427574A4
:101C8A007465723A20005445413A2000436F6666F3
:101C9A0065653A200042697279616E693A200000EE
:00000001FF
